:020000040000fa
:080000000002040000000000f2
:020000040000fa
:040008001e030000d3
:020000040000fa
:04000c00600300008d
:020000040000fa
:04001000c003000029
:020000040000fa
:040014003e030000a7
:020000040000fa
:040018008003000061
:020000040000fa
:04001c00a00300003d
:020000040000fa
:04002000e0030000f9
:020000040000fa
:04002400540500007f
:020000040000fa
:04002800540500007b
:020000040000fa
:04002c005405000077
:020000040000fa
:040030005405000073
:020000040000fa
:04003400c004000004
:020000040000fa
:04003800840400003c
:020000040000fa
:04003c005405000067
:020000040000fa
:040040005405000063
:020000040000fa
:04004400540500005f
:020000040000fa
:04004800540500005b
:020000040000fa
:04004c005405000057
:020000040000fa
:040050005405000053
:020000040000fa
:040054000c05000097
:020000040000fa
:04005800300500006f
:020000040000fa
:04005c005405000047
:020000040000fa
:04006000a2040000f6
:020000040000fa
:04006400540500003f
:020000040000fa
:04006800540500003b
:020000040000fa
:04006c005405000037
:020000040000fa
:040070005405000033
:020000040000fa
:04007400540500002f
:020000040000fa
:04007800540500002b
:020000040000fa
:04007c005405000027
:020000040000fa
:040080005405000023
:020000040000fa
:04008400540500001f
:020000040000fa
:04008800540500001b
:020000040000fa
:04008c005405000017
:020000040000fa
:040090005405000013
:020000040000fa
:04009400540500000f
:020000040000fa
:04009800540500000b
:020000040000fa
:04009c005405000007
:020000040000fa
:0400a0005405000003
:020000040000fa
:0400a40054050000ff
:020000040000fa
:0400a80054050000fb
:020000040000fa
:0400ac0054050000f7
:020000040000fa
:0400b00054050000f3
:020000040000fa
:0400b4000c04000038
:020000040000fa
:0400b80054050000eb
:020000040000fa
:0400bc0054050000e7
:020000040000fa
:0400c00054050000e3
:020000040000fa
:0400c40054050000df
:020000040000fa
:0400c80054050000db
:020000040000fa
:0400cc0054050000d7
:020000040000fa
:0400d00054050000d3
:020000040000fa
:0400d40054050000cf
:020000040000fa
:0400d80054050000cb
:020000040000fa
:0400dc0054050000c7
:020000040000fa
:0400e00054050000c3
:020000040000fa
:0400e40054050000bf
:020000040000fa
:0400e80054050000bb
:020000040000fa
:0400ec0054050000b7
:020000040000fa
:0400f00054050000b3
:020000040000fa
:0400f40054050000af
:020000040000fa
:0400f80054050000ab
:020000040000fa
:0400fc0054050000a7
:020000040000fa
:0401000054050000a2
:020000040000fa
:04010400540500009e
:020000040000fa
:04010800540500009a
:020000040000fa
:04010c005405000096
:020000040000fa
:040110005405000092
:020000040000fa
:04011400540500008e
:020000040000fa
:04011800540500008a
:020000040000fa
:04011c005405000086
:020000040000fa
:040120005405000082
:020000040000fa
:04012400540500007e
:020000040000fa
:04012800540500007a
:020000040000fa
:04012c005405000076
:020000040000fa
:040130005405000072
:020000040000fa
:04013400540500006e
:020000040000fa
:04013800540500006a
:020000040000fa
:04013c005405000066
:020000040000fa
:040140005405000062
:020000040000fa
:04014400540500005e
:020000040000fa
:04014800540500005a
:020000040000fa
:04014c005405000056
:020000040000fa
:040150005405000052
:020000040000fa
:04015400540500004e
:020000040000fa
:04015800540500004a
:020000040000fa
:04015c005405000046
:020000040000fa
:040160005405000042
:020000040000fa
:04016400540500003e
:020000040000fa
:04016800540500003a
:020000040000fa
:04016c005405000036
:020000040000fa
:040170005405000032
:020000040000fa
:04017400540500002e
:020000040000fa
:04017800540500002a
:020000040000fa
:04017c005405000026
:020000040000fa
:040180005405000022
:020000040000fa
:04018400540500001e
:020000040000fa
:04018800540500001a
:020000040000fa
:04018c005405000016
:020000040000fa
:040190005405000012
:020000040000fa
:04019400540500000e
:020000040000fa
:04019800540500000a
:020000040000fa
:04019c005405000006
:020000040000fa
:0401a0005405000002
:020000040000fa
:0401a40054050000fe
:020000040000fa
:0401a80054050000fa
:020000040000fa
:0401ac0054050000f6
:020000040000fa
:0401b00054050000f2
:020000040000fa
:0401b40054050000ee
:020000040000fa
:0401b80054050000ea
:020000040000fa
:0401bc0054050000e6
:020000040000fa
:0401c00054050000e2
:020000040000fa
:0401c40054050000de
:020000040000fa
:0401c80054050000da
:020000040000fa
:0401cc0054050000d6
:020000040000fa
:0401d00054050000d2
:020000040000fa
:0401d40054050000ce
:020000040000fa
:0401d80054050000ca
:020000040000fa
:0401dc0054050000c6
:020000040000fa
:0401e00054050000c2
:020000040000fa
:0401e40054050000be
:020000040000fa
:0401e80054050000ba
:020000040000fa
:0401ec0054050000b6
:020000040000fa
:0401f00054050000b2
:020000040000fa
:0401f40054050000ae
:020000040000fa
:0401f80054050000aa
:020000040000fa
:0401fc0054050000a6
:020000040000fa
:0402000054050000a1
:020000040000fa
:04020400540500009d
:020000040000fa
:040208005405000099
:020000040000fa
:04020c005405000095
:020000040000fa
:040210005405000091
:020000040000fa
:04021400540500008d
:020000040000fa
:040218005405000089
:020000040000fa
:04021c005405000085
:020000040000fa
:040220005405000081
:020000040000fa
:04022400540500007d
:020000040000fa
:040228005405000079
:020000040000fa
:04022c005405000075
:020000040000fa
:040230005405000071
:020000040000fa
:04023400540500006d
:020000040000fa
:040238005405000069
:020000040000fa
:04023c005405000065
:020000040000fa
:040240005405000061
:020000040000fa
:04024400540500005d
:020000040000fa
:040248005405000059
:020000040000fa
:04024c005405000055
:020000040000fa
:040250005405000051
:020000040000fa
:04025400540500004d
:020000040000fa
:040258005405000049
:020000040000fa
:04025c005405000045
:020000040000fa
:040260005405000041
:020000040000fa
:04026400540500003d
:020000040000fa
:040268005405000039
:020000040000fa
:04026c005405000035
:020000040000fa
:040270005405000031
:020000040000fa
:04027400540500002d
:020000040000fa
:040278005405000029
:020000040000fa
:04027c005405000025
:020000040000fa
:040280005405000021
:020000040000fa
:100400000f4021000eff27000e01880000000000b1
:10041000000020000000e000020032000001200087
:100420002002880014000700a10107000000e0007e
:1004300003003a004088210001002000020037003c
:100440000000200001002000810f70000100320038
:100450000f000700000020000000e0000200320052
:1004600000000200000000009611020000000000e1
:100470000040da000000fe00600020000000e00004
:1004800002003200002020009001880000000600d9
:10049000a1028800800478000000eb001f003700f4
:1004a000e284440054a0b4009905ba00e2844400f8
:1004b00054a0b4009906ba00e284440054a0b400e9
:1004c0000006eb00476fde00fd07b200ae018800ba
:1004d000636ce10003003a000ad801000000eb0061
:1004e0000e003700606ce10008003a00004deb00a0
:1004f0000a05e800020039003420ec000af0a000f0
:100500008b05e900f9ff3e00040037006168e10057
:10051000010032000086eb000b00070019c7ba008b
:100520000e04e0001905ba0003003a000a00e000da
:10053000dbff3a0000000600fe07b200ae028800b2
:100540008a047800f5ff37000cd0a300e20f4d00bd
:100550001c00390089027800354dba000a05e80010
:10056000020039003420ec000af0a0008b05e900fd
:100570000f003200254dba000a05e80002003900dc
:100580003420ec000af0a0008b05e90008003200de
:100590000c00e0000600320015cdba000a05e800a4
:1005a000020039003420ec000af0a0008b05e900bd
:1005b0008984e80054a0b4000b00e000e2ff3a0098
:1005c000000006009902ba00055d78008b05e9007d
:1005d000f7ff3200c82ade00055d78008b05e900d0
:1005e000f3ff32000c00e000f1ff320019ddba0029
:1005f000eeff37008e0d040000000000a20d040085
:1006000000000000b60d040000000000ca0d040048
:1006100000000000dc0d040000000000f00d0400ec
:1006200000000000301704000000000072160400f3
:100630000000000068160400000000003600f8000a
:10064000809fbe00829fbe00849fbe00869fbe002a
:100650000000fa00c028a9000000eb00f50a07001e
:100660000080fa004f03be004f02be004f01be00e3
:100670004f00be003600f900004006003600f800ca
:10068000809fbe00829fbe00849fbe00869fbe00ea
:100690000000fa00ec0a0700c048a9001000200082
:1006a000e40a07000080fa004f03be004f02be00bc
:1006b0004f01be004f00be003600f90000400600aa
:1006c0003600f800809fbe00829fbe00849fbe005f
:1006d000869fbe000000fa00c068a900200020002c
:1006e000d40a07000080fa004f03be004f02be008c
:1006f0004f01be004f00be003600f900004006006a
:100700003600f800809fbe00829fbe00849fbe001e
:10071000869fbe000000fa00c088a90030002000bb
:10072000c40a07000080fa004f03be004f02be005b
:100730004f01be004f00be003600f9000040060029
:100740003600f800809fbe00829fbe00849fbe00de
:10075000869fbe000000fa00c0a8a900400020004b
:10076000b40a07000080fa004f03be004f02be002b
:100770004f01be004f00be003600f90000400600e9
:100780003600f800809fbe00829fbe00849fbe009e
:10079000869fbe000000fa00c608a9007000200075
:1007a000a40a07000080fa004f03be004f02be00fb
:1007b0004f01be004f00be003600f90000400600a9
:1007c0003600f800809fbe00829fbe00849fbe005e
:1007d000869fbe000000fa00214680000002200033
:1007e000008060000000e00003003200c4a8a900ff
:1007f000900020008f0a07002046800070006000f3
:100800000000e00003003200c488a900a00020001e
:10081000880a0700ffff37003600f800809fbe00ff
:10082000829fbe00849fbe00869fbe000000fa002b
:100830005120800000022000008060000000e000e5
:100840001f00320051208000000022000080600064
:100850000000e00005003200008080000000e000a1
:100860000200320000808000000001005120800062
:1008700000002100008060000000e0000500320060
:10088000108080000000e000020032001080800034
:1008900000000100512080000080200000806000e6
:1008a0000000e00005003200208080000000e00031
:1008b0000200320020808000000001000aa4a9008c
:1008c00050208000620060000000e000060032005e
:1008d000408080000000e000020032004080800084
:1008e000000001000a24a9000468a9000080fa00a1
:1008f0004f03be004f02be004f01be004f00be00be
:100900003600f900004006003600f800809fbe0067
:10091000829fbe00849fbe00869fbe000000fa003a
:10092000300907000088a9000080fa004f03be00cc
:100930004f02be004f01be004f00be003600f9005e
:10094000004006003600f800809fbe00829fbe0077
:10095000849fbe00869fbe000000fa0024090700a5
:1009600001c8a9000080fa004f03be004f02be007c
:100970004f01be004f00be003600f90000400600e7
:10098000809fbe000000fa00a07080004d00de00d5
:10099000614060000004a200614060000080fb0034
:1009a000610060004d00dd00a170800001d0a10059
:1009b00001007000a070880011088000600920000c
:1009c000808f500003003e0060092000100888005e
:1009d00003003700100880000000d10010088800d4
:1009e00000818000ea0f500003003c00a0002000be
:1009f0000081880003003700008180006a005000f9
:100a0000008188000021ef000068a9000080fa0042
:100a10004f00be00004006003600f800809fbe0078
:100a2000829fbe00849fbe00869fbe000200fa0027
:100a300030118000004f78001e4078006b060700e0
:100a40000168a9000080fa004f03be004f02be00fb
:100a50004f01be004f00be003600f9000040060006
:100a60003600f800809fbe00829fbe00849fbe00bb
:100a7000869fbe000200fa00c7060700004f7800fc
:100a80001e80fb00201188000188a9000080fa0068
:100a90004f03be004f02be004f01be004f00be001c
:100aa0003600f900004006000040da000000fe00b9
:040ab000000005003d
:020000040000fa
:0c0ab40054650000737400000000000096
:020000040000fa
:100ac0000200fa00000f78001e007800e10f5000cd
:100ad00009003200e10f500005003900e20f50001c
:100ae00007003200e30f5000070032000800370013
:100af00001eba8000600370011eba8000400370046
:100b000021eba8000200370031eba8000000000034
:100b10000080fa00000006000400fa00000f7800d0
:100b2000110798001e007800e10f50000b00320002
:100b3000e10f500005003900e20f50000b003200b9
:100b4000e30f50000d003200100037009e009000af
:100b500021588800062bef000c0037009e00900003
:100b6000a1588800162bef00080037009e00900067
:100b700021598800262bef00040037009e009000ca
:100b8000a1598800362bef00000000000080fa0019
:100b9000000006000400fa00000f7800110798001a
:100ba0001e007800e10f50000a003200e10f5000f3
:100bb00005003900e20f500009003200e30f500039
:100bc0000a0032000c0037009e0090006158880037
:100bd000090037009e009000e158880006003700a9
:100be0009e00900061598800030037009e0090002d
:100bf000e1598800000000000080fa0000000600b3
:100c00000c00fa00004f9800510798000000eb001c
:100c1000100798000000eb00000f78006000b8009b
:100c200020079800310798000e4890000080fb00d4
:100c3000c400dd000020210000804000100078008a
:100c400061006000100798001e0090000000e000a6
:100c500018003a000e4890000080fb00c400dd0040
:100c6000002021000080400090007800c0ff21009b
:100c7000008060004200de008000eb005e0190001a
:100c80000089be005e009000a00090000100a1005d
:100c9000210098000e4890000080fb00c400dd0099
:100ca000002021000080400010007800620f6000ea
:100cb0006c0037000e4890000080fb00c400dd008f
:100cc0000020210000804000100078006101b80081
:100cd000c0ff21000100200002027800030178001b
:100ce00080017800010078000302620000006100ca
:100cf0008000eb00c000dd00000020000001be000d
:100d00006120b80000017100818171002207980004
:100d1000330798002e009000be009000c000dd0058
:100d2000000020005e0190000089be005e0090007f
:100d300010027800900290000e4890000080fb00a6
:100d40004400dd008080e800002021000080400099
:100d5000100078006101b800f0ff200001002000c1
:100d60000203780003017800800178000100780018
:100d700003036300000061008000eb00c000dd00a1
:100d8000000020000001be006130b80000017100c9
:100d9000818171004618dd00ca10de0081007000fc
:100da0004610dd0004004000858048005e01900090
:100db0000089be005e009000100278009002900052
:100dc0000e4890000080fb004400dd00e40040007d
:100dd0000020210000804000100078004a00de0062
:100de0006101b800f0ff2f0001002000020378002d
:100df000030178008001780001007800030363009c
:100e0000000061008000eb00c000dd000000200059
:100e10000001be006130b8000001710081817100e5
:100e200004004100858049005e0190000089be00f9
:100e30005e009000a00090000100a000210098003a
:100e40000e4890000080fb004400dd00e4004000fc
:100e50000020210000804000900078000020200049
:100e6000008f60001e0078000000e00005003200e6
:100e70005e009000a00090000110a00021009800ea
:100e80007b0037005e009000a00090000110a100e0
:100e9000210098005e009000300090008e48900085
:100ea0008180fb00c408dd00668140000120210034
:100eb000810041009100780081407800014878006d
:100ec0005e009000300090000000e8008e48900026
:100ed0008180fb00c408dd00668140000120210004
:100ee0008100410091007800c808de008140780050
:100ef000014878005e009000300090000080e8001b
:100f00008e4890008180fb00c408dd0068814000ad
:100f1000012021008100410091007800814078008b
:100f2000014878005e0090003000900063004000af
:100f30008e4890008180fb00c408dd00688140007d
:100f4000012021008100410091007800c808de00e6
:100f500081407800014878005e00900030009000e9
:100f6000640040008e4890008180fb00c408dd00d2
:100f70006a81400001202100810041009100780039
:100f800081407800014878005e00900030009000b9
:100f9000650040008e4890008180fb00c408dd00a1
:100fa0006a81400001202100810041009100780009
:100fb000c808de0081407800014878005e0090009b
:100fc00030009000660040008e4890008180fb0059
:100fd000c408dd006c814000012021008100410037
:100fe0009100780081407800014878005e00900010
:100ff00030009000670040008e4890008180fb0028
:10100000c408dd006c814000012021008100410006
:1010100091007800c808de0081407800014878001f
:101020000e4890000080fb004400dd00e40040001a
:10103000002021000080400010007800004078006f
:101040006f4060006f4060006f406000de00900005
:101050000080fb006f0060004200dd00a1019000f5
:1010600032fc2f000281610002007000a000980095
:101070000080fa00000006000400fa00000f78006b
:10108000110798001e009000200090006100600091
:101090000000e00015003a001e0090009000900053
:1010a0001000780080007800f07f20000080600051
:1010b000c200dd001e007800010878001e80e800f4
:1010c0008000eb00010878009e00780064804000fa
:1010d0009e009000a1009000c208de00efc06000fa
:1010e0008180fb0001087800250037001e00900079
:1010f00090009000100078004008de00800078002a
:10110000c0ff210000806000800078003100b30043
:101110001e007800010878001e81e8001e00900083
:101120009000900010007800ca09dd004600de0043
:1011300000807100c608de0080007800f0ff20000b
:1011400000806000000978009e0078006481400003
:101150001e009000200090004200de006f40600002
:101160008081fb001e00900090009000100078002d
:10117000000078004a00dd0000804100000978008e
:101180001e009000300090000000e0003b003200a4
:101190009e017800668041009e009000b1009000a2
:1011a0008100e800914078008180fb004809dd0063
:1011b0009e009000b1009000914078008180fb007b
:1011c00081004100010878009e007800688040009e
:1011d0009e009000b1009000e380400091407800b4
:1011e0008180fb004809dd009e009000b100900066
:1011f0008180e800914078008180fb0081004100ff
:10120000010878009e0178006a8041009e009000ed
:10121000b1009000e5804000914078008180fb00a3
:101220004809dd009e009000b1009000e48040007d
:10123000914078008180fb00810041000108780026
:101240009e0078006c8040009e009000b1009000ed
:10125000e7804000914078008180fb004809dd0074
:101260009e009000b1009000e68040009140780020
:101270008180fb0081004100010878000080fa00b5
:10128000000006000000fa002468a9000c24ef000a
:1012900001208000f08f2f000080600000a0a000df
:1012a000002088000000000001208000000e2000c7
:1012b0008080600000082000808f5000faff3a0014
:1012c0001000200080208800801a200090208800d4
:1012d00010002c003020880070002000a020880022
:1012e0000024ef000004a800c1208000c0ff2f00f0
:1012f00000806000c0208800c120800030ff2f00e7
:1013000000806000c0208800c1208000f0fc2f0019
:1013100000806000c02088008121800000fe2f0036
:101320000100700080218800a02180007f00600003
:10133000a0218800c02180007f006000c0218800bb
:1013400081218000c0ff2f00008060008021880084
:10135000a1218000c0ff2f0000806000a021880034
:10136000c1218000c0ff2f0000806000c0218800e4
:101370003224ef003624ef003a24ef003064a90055
:101380003464a9003864a900002280007f00600056
:101390000050a00000228800202280007f00600012
:1013a0000060a0002022880001228000c0ff2f00e2
:1013b000008060000022880021228000c0ff2f00f2
:1013c000008060002022880041228000c0ff2f00a2
:1013d00000806000402288004224ef004624ef0095
:1013e0004a24ef004064a9004464a9004864a900ad
:1013f00000218000f000b30000218800012180005e
:10140000000f2000010070000021880001218000f1
:1014100000f0200001007000002188000004a900f5
:1014200030e4a80031e4a90032e4a90033e4a900c3
:1014300034e4a90035e4a90036e4a90037e4a900a2
:1014400081218000c0ff2f00008060008021880083
:1014500081218000f0cf2f00008060008021880073
:1014600091218000c0ff2f00008060009021880043
:1014700091218000f0cf2f00008060009021880033
:10148000a1218000c0ff2f0000806000a021880003
:10149000a1218000f0cf2f0000806000a0218800f3
:1014a000b1218000c0ff2f0000806000b0218800c3
:1014b000b1218000f0cf2f0000806000b0218800b3
:1014c0002024ef002224ef002824ef002a24ef003c
:1014d0000a24a90001208000f08f2f000080600006
:1014e000002088000000000001208000000e200085
:1014f000008060000000e000fbff3a00e0d8200020
:101500008a01070020da20009201070060db20003a
:101510009a010700a0dc2000a1010700c0dd200027
:10152000a901070000df2000b10107002468a8001e
:101530000c24a8000ca4a8000c44a8000080fa0009
:10154000000006000000fa0020442000800078001f
:101550000000eb008ffd07000020210080007800d4
:101560000000eb006cfd07000000eb0054fd0700dd
:101570000080fa00000006000000fa00004420008d
:10158000800078001000200082fd0700002021006c
:1015900080007800100020005ffd07001000200090
:1015a00047fd07000080fa00000006000400fa0072
:1015b000100798000000eb00000f780021000700e2
:1015c000e40f5000060032001e009000e10f5000b2
:1015d000030032001e009000e40f500014003a0097
:1015e0001e00900000407800674060000080fb0013
:1015f000670060004800dd0002208000f18f2f00ae
:1016000081006100010070000020880000000000df
:10161000002080004500de00674060008080fb0005
:101620001e009000808f5000f9ff3a000200370042
:1016300010002000000f78001e0078000080fa00e3
:10164000000006000000fa00002080004500de00d7
:10165000674060000080fb000080fa000000060088
:101660000c00fa0040079800510798000000eb00ba
:10167000000f780000432000100798000040eb00a6
:10168000604798005e009000200090004200de005d
:101690006f4060000080fb00e80f50000100340044
:1016a0001e00a0000000eb00200798002800370073
:1016b0001e0090009040780000c8b30000c0600099
:1016c0000004e0001c0032001e0090001040780072
:1016d000684060000004e00017003a00012021008b
:1016e0002e0090004400dd0000804000de009000ed
:1016f00061fe07004e00900000407800e34060006b
:101700001e009000e3c0600090417800c2cfb3009b
:1017100002c1610081407100014878001e00900004
:10172000904078000134a0000148780010c0b30058
:1017300060479800090037001e0090000000e80094
:10174000100798002e0090000000e8002007980085
:101750002e0090000000e000d5ff32006e409000a7
:101760000004a2000004e000020032009e007800a5
:10177000638f70001e0078000080fa0000000600f1
:101780000a00fa00400798000040eb00204798004c
:1017900050208000640060000000e000080032007b
:1017a0000a44a900508080000000e00002003200de
:1017b00050808000000001002e409000390037006a
:1017c0004e009000300090000000e00002003a005f
:1017d0002e40900033003700402080000040780009
:1017e000f043b2000080fb00300798003e009000fc
:1017f000ef0f500005003e000121800021079800f6
:10180000be009000010f7800040037001121800015
:10181000210798003e009000700f50001e007800d5
:10182000ae0090000008de0061006000004078001b
:101830000004e0001a0032003e00900000407800f2
:10184000ce009000eefc07003e009000ef0f50002d
:1018500009003e001e007800110020000008dd0095
:101860000080ea0080007800002180000080600095
:1018700000218800080037001e00780011002000b9
:101880000008dd000080ea00800078001021800060
:10189000008060001021880010c0b300204798002d
:1018a0002e4090000080fa00000006000000fa00c0
:1018b000502080004d00de00614060000080fb0091
:1018c00000f0a7000000ea000000ea004f00de0080
:1018d000004078000080fa00000006000000fa00d6
:1018e000502080004b00de00614060000080fb0063
:1018f00000f0a7000000ea000000ea004f00de0050
:10190000004078000080fa00000006000000fa00a5
:10191000502080004900de00614060000080fb0034
:1019200000f0a7000000ea000000ea004f00de001f
:10193000004078000080fa00000006000200fa0073
:101940000040eb00004f78000ec4bf000004e00030
:10195000050032000ec4bf000004e00002003500a4
:1019600010c0b300004f78001e4078000080fa00dd
:10197000000006000000fa00502080004c00de004d
:10198000614060000080fb0000f0a7000000ea005a
:101990000000ea004f00de00004078000080fa00fe
:1019a000000006000000fa00502080004a00de001f
:1019b000614060000080fb0000f0a7000000ea002a
:1019c0000000ea004f00de00004078000080fa00ce
:1019d000000006000200fa000040eb00004f780013
:1019e0000fc4bf000004e000050032000fc4bf00b8
:1019f0000004e0000200350010c0b300004f780082
:101a00001e4078000080fa00000006000600fa0080
:101a10000000eb00000f78000121800021079800f2
:101a20002e0090000000e000110032000000eb00ea
:101a3000100798000b0037001e009000ae009000c9
:101a40000008de0061006000004078000004e00053
:101a5000010032001e0fe8001e0090000000e800a8
:101a6000100798001e009000ef0f5000f2ff3600a4
:101a700011218000210798002e0090000000e00056
:101a8000110032000000eb00100798000b00370037
:101a90001e009000ae0090000008de0061006000b3
:101aa000004078000004e000010032001e0fe80052
:101ab0001e0090000000e800100798001e00900033
:101ac000ef0f5000f2ff36001e0078000040780053
:101ad0000080fa00000006000000fa000ac4a90015
:101ae0000cc4a80001208000f08f2f00008060004f
:101af0000080a0000020880000000000012080007d
:101b0000000e20008080600000022000808f5000c6
:101b1000faff3a000080fa00000006000000fa0018
:101b2000500107000080fa00000006000200fa00e1
:101b3000000f78001e007800008088000080fa0006
:101b4000000006000000fa00490107000080fa00ca
:101b5000000006000200fa00000f78001e00780066
:101b6000108088000080fa00000006000000fa00e3
:101b7000420107000080fa00000006000200fa009f
:101b8000000f78001e007800208088000080fa0096
:101b9000000006000000fa000080fa0000000600c5
:101ba0000200fa00000f78001e00780030808800e4
:101bb0000080fa00000006000000fa003201070071
:101bc0000080fa00000006000200fa00000f780012
:101bd0001e007800408088000080fa0000000600a7
:101be0000000fa002b0107000080fa000000060048
:101bf0000200fa00000f78001e0078005080880074
:101c00000080fa00000006001400fa00000f98009f
:101c1000110f980003000900001feb008e00b100b7
:101c20007e0798001e089000900090001000780039
:101c300040079800510798001e089000404090000f
:101c4000614060000080fb0061006000ee009000d9
:101c50000100a10001007000600798001e089000bc
:101c600050409000614060000080fb006100600017
:101c700000004000ee0090000110a1000100700083
:101c8000600798001e089000604090006f40600060
:101c90000080fb006f0060004200dd006e019000dc
:101ca00031fc2f0081006100010070006007980086
:101cb0007e0090009e089000f1409000014878005e
:101cc0007e0090000000e8009e089000814890008f
:101cd000014878007e0090000080e8009e08900097
:101ce00091489000014878007e0090006300400019
:101cf0009e089000a1489000014878007e00900066
:101d0000640040009e089000b148900001487800af
:101d10007e009000650040009e089000c148900041
:101d2000014878007e009000660040009e08900008
:101d3000d1489000014878007e0090006700400084
:101d40009e089000e1489000014878006800470034
:101d5000800078000e08900041fe070000f0a70008
:101d60000000ea000000ea004f00de0000407800ba
:101d70000080fa00000006001400fa00100f98001e
:101d80000040eb00004f7800e10047000700090029
:101d90008058eb000e00e800000f98006a00470032
:101da00077fe07000004e000430032005e00900070
:101db000ee0090001e0990000089be007e00900099
:101dc00061406000804078001e089000414098000b
:101dd0007e009000620060000000e000040032001d
:101de0001e08900021c0b300514098000300370046
:101df0001e08900011c0b300514098000e089000da
:101e0000904078001e089000714098000e089000e5
:101e10000000e800904078001e08900001489800fb
:101e20000e0890000080e800904078001e089000a6
:101e3000114898000e089000630040009040780020
:101e40001e089000214898000e0890006400400091
:101e5000904078001e089000314898000e089000cd
:101e600065004000904078001e08900041489800ae
:101e70000e08900066004000904078001e08900018
:101e8000514898000e08900067004000904078008c
:101e90001e089000614898007e0090004200de001d
:101ea0006f406000804078001e08900061409800fc
:101eb00010c0b300004f78001e4078000080fa0088
:101ec000000006000000fa00502080004d00de00f7
:101ed000614060000080fb0000f0a7000000ea0005
:101ee0000000ea004f00de00004078000080fa00a9
:101ef000000006000000fa00502080004b00de00c9
:101f0000614060000080fb0000f0a7000000ea00d4
:101f10000000ea004f00de00004078000080fa0078
:101f2000000006000000fa00502080004c00de0097
:101f3000614060000080fb0000f0a7000000ea00a4
:101f40000000ea004f00de00004078000080fa0048
:101f5000000006000600fa000000eb00000f780009
:101f600001218000210798002e0090000000e00071
:101f7000110032000000eb00100798000b00370042
:101f80001e009000ae0090000008de0061006000be
:101f9000004078000004e000010032001e0fe8005d
:101fa0001e0090000000e800100798001e0090003e
:101fb000ef0f5000f2ff360011218000210798003a
:101fc0002e0090000000e000110032000000eb0045
:101fd000100798000b0037001e009000ae00900024
:101fe0000008de0061006000004078000004e000ae
:101ff000010032001e0fe8001e0090000000e80003
:10200000100798001e009000ef0f5000f2ff3600fe
:102010001e007800004078000080fa0000000600f2
:102020000000fa000ac4a9000cc4a8000120800026
:10203000f08f2f00008060000080a000002088004a
:102040000000000001208000000e20008080600061
:1020500000022000808f5000faff3a000080fa0052
:10206000000006000000fa000080fa0000000600f0
:102070000000fa000080fa00000006000000fa00ec
:102080000080fa00000006000000fa000080fa005c
:10209000000006000000fa000080fa0000000600c0
:1020a0000600fa00000f7800110798002207980038
:1020b000010037001e0fe8001e00780090407800f5
:1020c00040c2b30080cf5000faff3a001e0fe80074
:1020d0001e007800904078001e00900001487800b3
:1020e0002e0090008000eb00010878002e00900088
:1020f000900078001e00e800104078000000fb000f
:1021000002fd2f0000014100803e20008090b900b8
:10211000808040002e009000010878002e00900082
:10212000900078001e80e800104078000001fb005d
:10213000400620008091b90000d42e00000041002c
:10214000808040002e009000010878002e00900052
:10215000900078001e017800630041001040780074
:102160000000fb00ea00b900001eb10080804000c2
:102170002e009000010878002e009000900078005a
:102180001e01780064004100104078000000fb0050
:102190000003b100808040002e009000010878000c
:1021a0000080fa00000006001800fa00007d200000
:1021b00001002000008fbe0060c4b30040479800bb
:1021c00010c0b3005047980010c0b300604798009b
:1021d0001e0078009e0090004008de00004078005d
:1021e00000579800f0ff2f00010020001e0178002a
:1021f0009e019000020278000301780080017800bf
:102200000100780003026200000061008000eb0022
:10221000c000dd00000020000001be006120b80009
:102220000001710081817100028fbe001e007800e4
:102230009e0090004809dd004800de0000007100ab
:10224000c808de000040780010579800f00f20000a
:10225000010020001e0178009e019000020278001b
:102260000301780080017800010078000302620019
:10227000000061008000eb00c000dd0000002000d5
:102280000001be006120b800000171008181710071
:10229000028fbe001e007800004078002057980092
:1022a000ce409000315798005e4190004257980010
:1022b000ee409000515798001000200001002000cf
:1022c00040079800510798006e0090000000a100a0
:1022d000600798006e0090000010a1006007980051
:1022e000ee00900030fc2f00008060000050a00045
:1022f000600798007000470070079800680047006a
:10230000800078000000eb00d5fc07000000000012
:1023100050208000610060000000e000fcff3200ff
:102320000a04a9000080fa00000006001800fa0064
:10233000a30307007d01070050000700c501070047
:10234000a0552800e20007000000eb00000f780015
:102350000000eb00100798007afc070086fc0700dd
:102360000073210018fe0700030037000000000082
:102370000100370000000000780007000004e000c2
:10238000faff3a0052000700804078001e017800f2
:1023900064004100017778009e007800648040006e
:1023a000ee40780040c2b30080cf500002003a00f7
:1023b00010002000100798001e0178006400410002
:1023c000ee407800a0c2b30080cf500002003a0077
:1023d0000000eb00100798001e0090000000e000d5
:1023e000e4ff32001e0fe800e3ff37000200fa00ae
:1023f000004f7800bd010700000f210090407800d9
:1024000040c6b30080cf500019003200100f2100e9
:10241000104078008080fb00c00821000080400050
:102420001e487800000f2100104078008040e8002e
:10243000000f210001487800100f21009040780023
:1024400030c6b30080cf500004003a00100f2100c6
:102450008040eb000148780005003700100f210094
:10246000104078008040e800100f210001487800fb
:102470009a0107000080fa00000006000000fa0040
:10248000800821008040eb0001487800900821007e
:102490008040eb0001487800a00821008040eb005c
:1024a00001487800000f21008040eb0001487800cf
:1024b000100f21008040eb0001487800200f210020
:1024c0008040eb00014878000080fa000000060020
:1024d0000200fa0085010700000f2100104078007b
:1024e0000004e00019003200200f210010407800a5
:1024f0008080fb00c008210000804000104f780061
:10250000000f2100104078008040e900000f2100fa
:1025100001487800200f21009040780030c6b300b9
:1025200080cf500004003a00200f21008040eb00d3
:102530000148780005003700200f21001040780086
:102540008040e800200f2100014878006301070067
:102550001e4078000080fa00000006000200fa0029
:1025600062010700000f2100104078000004e00025
:10257000030032000040eb00004f780002003700fb
:1025800010c0b300004f7800540107001e407800cf
:102590000080fa00000006000200fa008008210016
:1025a000104078000004e0001e003200a008210066
:1025b000104078008080fb00400221000080400035
:1025c000104f780080082100104078008040e9001a
:1025d0008008210001487800800821001040780020
:1025e0000004e00001003a0048010700a0082100b3
:1025f0009040780030c6b30080cf500004003a000d
:10260000a00821008040eb00014878000500370059
:10261000a0082100104078008040e800a0082100b8
:10262000014878001e4078000080fa000000060093
:102630000200fa00004f78003401070080082100f2
:102640009040780040c6b30080cf50001d0032009b
:1026500090082100104078008080fb00400221009b
:10266000008040001e48780004010700e14f500040
:102670000100320029010700800821001040780085
:102680008040e8008008210001487800900821007f
:102690009040780030c6b30080cf500004003a006c
:1026a000900821008040eb000148780005003700c9
:1026b00090082100104078008040e8009008210038
:1026c000014878000d0107000080fa0000000600b4
:1026d0000200fa00000f7800040037001e007800a6
:1026e00010407800d2ff07001e0fe8001e0078009f
:1026f000104078000004e000f8ff3a000080fa0083
:10270000000006000000fa00003a80000080fa0095
:10271000000006000200fa00faff0700000f780030
:102720001e007800240007000004e00002003200d0
:1027300000002800710007001e0078002a00070032
:102740000004e00002003200000024006b000700db
:102750001e007800320007000004e0000200320092
:1027600000202000650007001e0078003a000700e6
:102770000004e00002003200000820005f000700b3
:102780001e007800420007000004e0000200320052
:1027900000042000590007001e0078004a000700ce
:1027a0000004e00002003200000120005300070096
:1027b0000080fa00000006000400fa0010079800ec
:1027c0000040eb00004f78001e0090000000e00089
:1027d00002003d0010c0b300004f78001e4078009a
:1027e0000080fa00000006000400fa0010079800bc
:1027f0000040eb00004f78009e0090000000240095
:10280000008060000000e0000200320010c0b30051
:10281000004f78001e4078000080fa00000006009b
:102820000400fa00100798000040eb00004f780009
:102830009e00900000202000008060000000e0006a
:102840000200320010c0b300004f78001e40780034
:102850000080fa00000006000400fa00100798004b
:102860000040eb00004f78009e0090000008200020
:10287000008060000000e0000200320010c0b300e1
:10288000004f78001e4078000080fa00000006002b
:102890000400fa00100798000040eb00004f780099
:1028a0009e00900000042000008060000000e00016
:1028b0000200320010c0b300004f78001e407800c4
:1028c0000080fa00000006000400fa0010079800db
:1028d0000040eb00004f78001e0090007000600088
:1028e0000000e0000200320010c0b300004f78008a
:1028f0001e4078000080fa00000006000200fa0086
:10290000000f78009e80ea00003a8000008060009e
:10291000003a88000080fa00000006000000fa007b
:102920004027ef000080fa00000006000000fa00d7
:1029300021e2a90021a2a9002182a9002162a90007
:1029400001118000f0cf2f0000806000001188008e
:1029500020e2a90020c2a90020a2a9002082a9008b
:102960002062a9000111800090ff2f00008060000c
:10297000001188002002a9005001200040118800a9
:1029800023e2a90023c2a90023a2a9002362a9006f
:102990002342a9002322a9002302a90011118000cb
:1029a000f0f32f00008060001011880022a2a9001f
:1029b0002282a9002262a9002242a9002222a900a3
:1029c0002202a9000188a9000168a9002168a800c5
:1029d00042c7bf008080fb00f00b20000081600038
:1029e00060042000710520002374200080497800d5
:1029f00081497800824978002136800000f82f0054
:102a000080806000200220000100700020368800d5
:102a10003134800000fc2f00008060000000a00026
:102a20003034880042c7bf000064a0000081fb0072
:102a30006004200071052000237420008049780084
:102a40008149780082497800104ea8000080fa0081
:102a5000000006000000fa0021e2a8002342a800be
:102a60000080fa00000006000000fa0021e2a90040
:102a70002342a9000080fa00000006000200fa00cc
:102a80001111800000202000008060000000e000a4
:102a90000300320010c0b300004f7800020037007e
:102aa0000040eb00004f78001e4078000080fa00e4
:102ab000000006000200fa0002003700301180001a
:102ac000004f780010118000610060000000e000fd
:102ad000faff3a000080fa00000006000000fa0049
:102ae0002168a8000080fa00000006000000fa003b
:102af0002168a9000080fa00000006000000fa002a
:102b00002188a8000080fa00000006000000fa00fa
:102b10002188a9000080fa00000006000000fa00e9
:102b20000188a8000080fa00000006000000fa00fa
:102b300005e1a9000421a90004c1a9002108800021
:102b40000003200001007000200888000021ef0031
:102b5000803e20001008880001428000f0ff28001d
:102b60000080600000c0a000004288000068a9004a
:102b70000080fa00000006000000fa00d08080000b
:102b80000000e0000800320011088000803e2000b4
:102b9000808f500004003200100880004006b00012
:102ba0001008880031003700b0808000c1808000ac
:102bb000e00f5000e08f580005003a002067210028
:102bc00000000100803e2000100888002700370028
:102bd000b0808000c1808000420620008289b90058
:102be000e002b9008401780003014100430620009f
:102bf0000300b80001014100820078001208800043
:102c0000833e2000028151008001eb00820f5000c2
:102c1000838f58000800390011088000803e200092
:102c2000808f500004003200100880004006b00081
:102c30001008880007003700110880006009200094
:102c4000808f500003003600100880004006b1005d
:102c500010088800b0808000c180800061005000b2
:102c6000e0805800b0808800c18088000080fa00b1
:102c7000000006000400fa00008fbe00b080800053
:102c8000c18080003e014000ae8148000200be00cd
:102c9000b0808800c18088002108800000002800e2
:102ca000008060000000e00002003a008066210021
:102cb000000001000080fa00000006000000fa0099
:102cc000b0808000c18080000080fa000000060013
:102cd0000000fa002068a80005e1a8000080fa00c2
:102ce000000006000000fa002068a90005e1a90024
:102cf0001a30ef000080fa00000006000000fa0021
:102d000010002000d08088001630ef001830ef004f
:102d10000080fa00000006000000fa000002220015
:102d2000005888006004200010588800062bef002f
:102d300000002100205888000a2bef00082bef002c
:102d40000c2bef0070002000705888000088a9004c
:102d50002088a8000002200080588800200220005f
:102d600090588800162bef0000002100a058880022
:102d70001a2bef00182bef001c2bef007000200027
:102d8000f058880001c8a90021c8a800202bef0036
:102d9000222bef00262bef00000021002059880095
:102da0002a2bef00282bef002c2bef002e2bef000f
:102db0000308a900302bef00322bef00362bef0079
:102dc00000002100a05988003a2bef00382bef00bb
:102dd0003c2bef003e2bef000488a9000080fa0096
:102de000000006000000fa000080fa000000060063
:102df0000000fa000080fa00000006000000fa005f
:102e00000080fa00000006000000fa001140800077
:102e100000102000008060000000e000020032008e
:102e2000f6ff07000308a9000080fa000000060072
:102e30000000fa000080fa00000006000000fa001e
:102e400020408000700060000000e00002003200be
:102e5000f7ff07000488a9000080fa0000000600c0
:102e60000000fa0010002000608088000080fa0056
:102e7000000006000800fa00e4fa07000004e00081
:102e800002003a000c30ef0044003700e00021005f
:102e90004111210031009800e000210038fa0700bc
:102ea0000004e0003c003200e00021001001780046
:102eb000900190001000200001002000800f5100c0
:102ec000818f590002003a0086ff07003300370067
:102ed0006000b800008fbe00e000210030009000cc
:102ee000104078000080fb004000dd00cf80de0055
:102ef0001e0f40005e974800e00021003000900067
:102f00000000e800104078000080fb004800dd0071
:102f1000cf80de001e0f40005e974800e0002100d9
:102f2000300090000080e800104078000080fb0036
:102f30008000eb001e0f40005e974800e00021007b
:102f400030009000630040009040780041479800b6
:102f5000e0002100300090006400400090407800c4
:102f600051479800e00021003000900065004000cb
:102f700090407800614798006e4090000004e000a7
:102f80000100320057ff07001e0078009e009000ed
:102f900038ff070001003700000000000080fa0041
:102fa000000006000000fa00042eef0000c024001c
:102fb000a07088007001200000708800f0392000a7
:102fc000807088000c2eef001c2eef000a2eef0000
:102fd0001a2eef00062eef00162eef003000200014
:102fe00070708800c0102000f0708800113a8000d6
:102ff000f00b2000008160006004200071052000bb
:103000002374200080497800814978008249780043
:10301000a136800000f82f0080806000a002200010
:1030200001007000a036880041348000f00f2c00b1
:103030008080600000e020000100700040348800c3
:10304000103a8000000178000260a00060042000b7
:1030500071052000237420008049780081497800a0
:10306000824978000080fa00000006000000fa00a3
:1030700000102300203a88004827ef004e27ef0079
:1030800060022000303a88006027ef006227ef00de
:103090006427ef006627ef006c27ef003200200066
:1030a00080072000a10920003374200080497800a7
:1030b00081497800824978001200200060042000d5
:1030c0007105200023742000804978008149780030
:1030d0008249780000000000103a80006100600022
:1030e0000000e000fcff3a0000000000113a800000
:1030f00000022000008060000000e000fbff3200c2
:083100000080fa000000060047
:020000040000fa
:10310800f4100000200000008000000022100000e1
:103118000200000082000000ffff00000012000013
:103128000002000080000000001000000c000000f9
:10313800800000001411000008000000800000005a
:103148000c1000000a0000008000000016100000ab
:1031580008000000800000001e10000004000000ad
:103168008200000030756400000000002410000098
:0c317800d00000008000000000000000fb
:020000040000fa
:103184000200fa00000f780021028000200f2000c6
:10319400008060001e007000200288000080fa0099
:1031a400000006000000fa00c3e8a80000000000c8
:1031b400000000000080fa00000006000000fa0091
:1031c40077ff070008000700a7ff07002cf8070097
:1031d400d0fe0700f3ff070000022000e8ff07000d
:1031e4000080fa00000006000000fa00314280006e
:1031f400f08f2f00008060000080a0003042880023
:103204001142800080ff2f00008060000000a000b9
:103214001042880081428000f0ff28000080600096
:1032240000c0a000804288000080fa000000060070
:103234000200fa00000f78009e00780011818800d7
:10324400ffff37000000fa00400f210080077800dc
:10325400c0102100000188000080fa000000060070
:020000040000fa
:02000004000af0
:04afe000cdff0000a1
:020000040000fa
:02000004000af0
:04afe400cfff00009b
:020000040000fa
:02000004000af0
:04afe8007fff0000e7
:020000040000fa
:02000004000af0
:04afec0079ff0000e9
:020000040000fa
:02000004000af0
:04aff00078ff0000e6
:020000040000fa
:02000004000af0
:04aff400ffffff005c
:00000001FF
