:020000040000fa
:080000000002040000000000f2
:020000040000fa
:040008001e030000d3
:020000040000fa
:04000c00600300008d
:020000040000fa
:04001000c003000029
:020000040000fa
:040014003e030000a7
:020000040000fa
:040018008003000061
:020000040000fa
:04001c00a00300003d
:020000040000fa
:04002000e0030000f9
:020000040000fa
:04002400ea050000e9
:020000040000fa
:04002800ea050000e5
:020000040000fa
:04002c00ea050000e1
:020000040000fa
:04003000ea050000dd
:020000040000fa
:04003400a40500001f
:020000040000fa
:04003800840400003c
:020000040000fa
:04003c00ea050000d1
:020000040000fa
:04004000ea050000cd
:020000040000fa
:04004400ea050000c9
:020000040000fa
:04004800ea050000c5
:020000040000fa
:04004c00ea050000c1
:020000040000fa
:04005000ea050000bd
:020000040000fa
:040054002205000081
:020000040000fa
:04005800c0040000e0
:020000040000fa
:04005c00ea050000b1
:020000040000fa
:04006000a2040000f6
:020000040000fa
:04006400ea050000a9
:020000040000fa
:04006800ea050000a5
:020000040000fa
:04006c00ea050000a1
:020000040000fa
:04007000ea0500009d
:020000040000fa
:04007400ea05000099
:020000040000fa
:04007800ea05000095
:020000040000fa
:04007c00ea05000091
:020000040000fa
:04008000ea0500008d
:020000040000fa
:04008400ea05000089
:020000040000fa
:04008800ea05000085
:020000040000fa
:04008c00ea05000081
:020000040000fa
:04009000ea0500007d
:020000040000fa
:04009400ea05000079
:020000040000fa
:04009800ea05000075
:020000040000fa
:04009c00ea05000071
:020000040000fa
:0400a000ea0500006d
:020000040000fa
:0400a400ea05000069
:020000040000fa
:0400a800ea05000065
:020000040000fa
:0400ac00ea05000061
:020000040000fa
:0400b000ea0500005d
:020000040000fa
:0400b4000c04000038
:020000040000fa
:0400b800ea05000055
:020000040000fa
:0400bc00ea05000051
:020000040000fa
:0400c000ea0500004d
:020000040000fa
:0400c400ea05000049
:020000040000fa
:0400c800ea05000045
:020000040000fa
:0400cc00ea05000041
:020000040000fa
:0400d000ea0500003d
:020000040000fa
:0400d400ea05000039
:020000040000fa
:0400d800ea05000035
:020000040000fa
:0400dc00ea05000031
:020000040000fa
:0400e000ea0500002d
:020000040000fa
:0400e400ea05000029
:020000040000fa
:0400e800ea05000025
:020000040000fa
:0400ec00ea05000021
:020000040000fa
:0400f000ea0500001d
:020000040000fa
:0400f400ea05000019
:020000040000fa
:0400f800ea05000015
:020000040000fa
:0400fc00ea05000011
:020000040000fa
:04010000ea0500000c
:020000040000fa
:04010400ea05000008
:020000040000fa
:04010800ea05000004
:020000040000fa
:04010c00ea05000000
:020000040000fa
:04011000ea050000fc
:020000040000fa
:04011400ea050000f8
:020000040000fa
:04011800ea050000f4
:020000040000fa
:04011c00ea050000f0
:020000040000fa
:04012000ea050000ec
:020000040000fa
:04012400ea050000e8
:020000040000fa
:04012800ea050000e4
:020000040000fa
:04012c008e0500003c
:020000040000fa
:04013000ea050000dc
:020000040000fa
:04013400ea050000d8
:020000040000fa
:04013800ea050000d4
:020000040000fa
:04013c00ea050000d0
:020000040000fa
:04014000ea050000cc
:020000040000fa
:04014400ea050000c8
:020000040000fa
:04014800ea050000c4
:020000040000fa
:04014c00ea050000c0
:020000040000fa
:04015000ea050000bc
:020000040000fa
:04015400ea050000b8
:020000040000fa
:04015800ea050000b4
:020000040000fa
:04015c00ea050000b0
:020000040000fa
:04016000ea050000ac
:020000040000fa
:04016400ea050000a8
:020000040000fa
:04016800ea050000a4
:020000040000fa
:04016c00ea050000a0
:020000040000fa
:04017000ea0500009c
:020000040000fa
:04017400ea05000098
:020000040000fa
:04017800ea05000094
:020000040000fa
:04017c00ea05000090
:020000040000fa
:04018000ea0500008c
:020000040000fa
:04018400ea05000088
:020000040000fa
:04018800ea05000084
:020000040000fa
:04018c00ea05000080
:020000040000fa
:04019000ea0500007c
:020000040000fa
:04019400ea05000078
:020000040000fa
:04019800ea05000074
:020000040000fa
:04019c00ea05000070
:020000040000fa
:0401a000ea0500006c
:020000040000fa
:0401a400ea05000068
:020000040000fa
:0401a800ea05000064
:020000040000fa
:0401ac00ea05000060
:020000040000fa
:0401b000ea0500005c
:020000040000fa
:0401b400ea05000058
:020000040000fa
:0401b800ea05000054
:020000040000fa
:0401bc00ea05000050
:020000040000fa
:0401c000ea0500004c
:020000040000fa
:0401c400ea05000048
:020000040000fa
:0401c800ea05000044
:020000040000fa
:0401cc00ea05000040
:020000040000fa
:0401d000ea0500003c
:020000040000fa
:0401d400ea05000038
:020000040000fa
:0401d800ea05000034
:020000040000fa
:0401dc00ea05000030
:020000040000fa
:0401e000ea0500002c
:020000040000fa
:0401e400ea05000028
:020000040000fa
:0401e800ea05000024
:020000040000fa
:0401ec00ea05000020
:020000040000fa
:0401f000ea0500001c
:020000040000fa
:0401f400ea05000018
:020000040000fa
:0401f800ea05000014
:020000040000fa
:0401fc00ea05000010
:020000040000fa
:04020000ea0500000b
:020000040000fa
:04020400ea05000007
:020000040000fa
:04020800ea05000003
:020000040000fa
:04020c00ea050000ff
:020000040000fa
:04021000ea050000fb
:020000040000fa
:04021400ea050000f7
:020000040000fa
:04021800ea050000f3
:020000040000fa
:04021c00ea050000ef
:020000040000fa
:04022000ea050000eb
:020000040000fa
:04022400ea050000e7
:020000040000fa
:04022800ea050000e3
:020000040000fa
:04022c00ea050000df
:020000040000fa
:04023000ea050000db
:020000040000fa
:04023400ea050000d7
:020000040000fa
:04023800ea050000d3
:020000040000fa
:04023c00ea050000cf
:020000040000fa
:04024000ea050000cb
:020000040000fa
:04024400ea050000c7
:020000040000fa
:04024800ea050000c3
:020000040000fa
:04024c00ea050000bf
:020000040000fa
:04025000ea050000bb
:020000040000fa
:04025400ea050000b7
:020000040000fa
:04025800ea050000b3
:020000040000fa
:04025c00ea050000af
:020000040000fa
:04026000ea050000ab
:020000040000fa
:04026400ea050000a7
:020000040000fa
:04026800ea050000a3
:020000040000fa
:04026c00ea0500009f
:020000040000fa
:04027000ea0500009b
:020000040000fa
:04027400ea05000097
:020000040000fa
:04027800ea05000093
:020000040000fa
:04027c00ea0500008f
:020000040000fa
:04028000ea0500008b
:020000040000fa
:100400000f4021000eff2c000e01880000000000ac
:10041000000020000000e000020032000001200087
:100420002002880014000700ec0107000000e00033
:1004300003003a00a0aa21000100200002003700ba
:100440000000200001002000810f70000100320038
:100450000f000700000020000000e0000200320052
:1004600000000200000000007c1b020000000000f1
:100470000040da000000fe00200020000000e00044
:1004800002003200100020009001880000000600e9
:10049000a1028800800478000000eb001f003700f4
:1004a000e284440054a0b4009905ba00e2844400f8
:1004b00054a0b4009906ba00e284440054a0b400e9
:1004c0000006eb00476fde00fd07b200ae018800ba
:1004d000636ce10003003a000ad801000000eb0061
:1004e0000e003700606ce10008003a00004deb00a0
:1004f0000a05e800020039003420ec000af0a000f0
:100500008b05e900f9ff3e00040037006168e10057
:10051000010032000086eb000b00070019c7ba008b
:100520000e04e0001905ba0003003a000a00e000da
:10053000dbff3a0000000600fe07b200ae028800b2
:100540008a047800f5ff37000cd0a300e20f4d00bd
:100550001c00390089027800354dba000a05e80010
:10056000020039003420ec000af0a0008b05e900fd
:100570000f003200254dba000a05e80002003900dc
:100580003420ec000af0a0008b05e90008003200de
:100590000c00e0000600320015cdba000a05e800a4
:1005a000020039003420ec000af0a0008b05e900bd
:1005b0008984e80054a0b4000b00e000e2ff3a0098
:1005c000000006009902ba00055d78008b05e9007d
:1005d000f7ff3200c82ade00055d78008b05e900d0
:1005e000f3ff32000c00e000f1ff320019ddba0029
:1005f000eeff3700c00f040000000000d40f04001d
:1006000000000000e80f040000000000fc0f0400e0
:10061000000000000e100400000000002210040082
:1006200000000000ca12040000000000e8120400ec
:10063000000000008e150400000000003600f800e5
:10064000809fbe00829fbe00849fbe00869fbe002a
:100650000000fa00c028a9000000eb00970c07007a
:100660000080fa004f03be004f02be004f01be00e3
:100670004f00be003600f900004006003600f800ca
:10068000809fbe00829fbe00849fbe00869fbe00ea
:100690000000fa008e0c0700c048a90010002000de
:1006a000860c07000080fa004f03be004f02be0018
:1006b0004f01be004f00be003600f90000400600aa
:1006c0003600f800809fbe00829fbe00849fbe005f
:1006d000869fbe000000fa00c068a900200020002c
:1006e000760c07000080fa004f03be004f02be00e8
:1006f0004f01be004f00be003600f900004006006a
:100700003600f800809fbe00829fbe00849fbe001e
:10071000869fbe000000fa00c088a90030002000bb
:10072000660c07000080fa004f03be004f02be00b7
:100730004f01be004f00be003600f9000040060029
:100740003600f800809fbe00829fbe00849fbe00de
:10075000869fbe000000fa00c0a8a900400020004b
:10076000560c07000080fa004f03be004f02be0087
:100770004f01be004f00be003600f90000400600e9
:100780003600f800809fbe00829fbe00849fbe009e
:10079000869fbe000000fa00c608a9007000200075
:1007a000460c07000080fa004f03be004f02be0057
:1007b0004f01be004f00be003600f90000400600a9
:1007c0003600f800809fbe00829fbe00849fbe005e
:1007d000869fbe000000fa00214680000002200033
:1007e000008060000000e00003003200c4a8a900ff
:1007f00090002000310c070020468000700060004f
:100800000000e00003003200c488a900a00020001e
:100810002a0c0700ffff37003600f800809fbe005b
:10082000829fbe00849fbe00869fbe000000fa002b
:100830005120800000022000008060000000e000e5
:100840001f00320051208000000022000080600064
:100850000000e00005003200e08080000000e000c1
:1008600002003200e0808000000001005120800082
:1008700000002100008060000000e0000500320060
:10088000f08080000000e00002003200f080800074
:1008900000000100512080000080200000806000e6
:1008a0000000e00005003200008180000000e00050
:1008b0000200320000818000000001000aa4a900ab
:1008c00050208000620060000000e000060032005e
:1008d000208180000000e0000200320020818000c2
:1008e000000001000a24a9000468a9000080fa00a1
:1008f0004f03be004f02be004f01be004f00be00be
:100900003600f900004006003600f800809fbe0067
:10091000829fbe00849fbe00869fbe000000fa003a
:10092000b00a07000088a9000080fa004f03be004b
:100930004f02be004f01be004f00be003600f9005e
:10094000004006003600f800809fbe00829fbe0077
:10095000849fbe00869fbe000000fa00a40a070024
:1009600001c8a9000080fa004f03be004f02be007c
:100970004f01be004f00be003600f90000400600e7
:100980003600f800809fbe00829fbe00849fbe009c
:10099000869fbe000000fa00508080000000e0004a
:1009a0000200320050808000000001003180800091
:1009b00020808000808f500002003a002188a9002a
:1009c000190037000188a90010003700308080002e
:1009d000904078008180fb00211188000000e80031
:1009e0003080880031808000300c2100808f5000e2
:1009f00002003a00a00b2100308088003180800086
:100a000020808000808f500006003200111180008d
:100a100000202000008060000000e000ebff3200ba
:100a200001003700000000000080fa004f03be0004
:100a30004f02be004f01be004f00be003600f9005d
:100a4000004006003600f800809fbe00829fbe0076
:100a5000849fbe00869fbe000000fa006080800078
:100a60000000e00002003200608080000000010011
:100a70000168a9001e00370000808000311180004d
:100a8000814078000148780001808000b00c21008e
:100a9000808f500009003200008080008000e80054
:100aa00010808000808f50000400320000808000a1
:100ab0000000e800008088000d0037000180800001
:100ac000b00c2100808f500007003a001180800098
:100ad000300c2100808f500003003200300c2100c8
:100ae000008088000200370010c0b30008f0b70093
:100af00010118000610060000000e000deff3a009d
:100b00000080fa004f03be004f02be004f01be003e
:100b10004f00be003600f90000400600801f78003c
:100b20000000fa0010118000620060000000e00088
:100b3000010032002222a9000828a9000080fa0042
:100b40004f007800004006003600f800809fbe008d
:100b5000829fbe00849fbe00869fbe000000fa00f8
:100b6000a07080004c00de00614060000004a20024
:100b7000614060000080fb00610060004c00dd000f
:100b8000a170800001c0a10001007000a070880069
:100b9000708180000000e00003003200c4080700fc
:100ba0002e30ef0002003700100020007081880016
:100bb0000021ef000068a9000080fa004f03be008a
:100bc0004f02be004f01be004f00be003600f900cc
:100bd000004006000040da000000fe0000000500b2
:100be000ee874700889fbe008a9fbe008c9fbe0094
:100bf0008e1f7800f0b79f0001067800820578000c
:100c000000047800080578000a047800b8467800e7
:100c10000d00fb008e0007000000e000f9ff3a0025
:100c2000d0c2b30080cf56000300320000c0e900fc
:100c300080cf560002003a000a05e80001003700a4
:100c4000804678000b00e00005003500e18f55007c
:100c50000300320040022000808f5500060034005f
:100c60006044b8000c00e000720032007fb09700d2
:100c7000000e7800480037000b00e0000e00320044
:100c8000f08f55001a003a0000c3b3009a4f1000cd
:100c900017003a001a40900081c7b300814f5000fe
:100ca0000300320081c5b300814f500010003a00ac
:100cb0000a85e8000e003700ab00200000c3b30037
:100cc0009a4f10000a003a001a40900081c7b30002
:100cd000814f5000040032008b00200081c5b3001a
:100ce000814f500002003a000a85e8000b01200005
:100cf0000a007800000278000400780001c3b30005
:100d0000b0cf1000fbff3200040778006044b80049
:100d1000b4b79f000d00370041032100814050000f
:100d2000c1ef9f006159b9000800be0077000700bd
:100d30004fea97000401fb00cf91de00c8b79f0087
:100d4000d9b79f0002044000838448008e027800d7
:100d50003e00fb0085bf9f00450007000b017800a7
:100d600080007800400321004e0007008fba9700f2
:100d70000000e000e8ff3a003fb29700850f550001
:100d800007003a006044b8000c00e000290032007f
:100d9000ffb29700050e78006044b80025003700c8
:100da00004825200900521000b0040001000fb005f
:100db000000252001700330011003a004fe997007b
:100dc0000200fb00cf80de000000540081805c0048
:100dd000800f5400818f5c00090039006159b9000f
:100de00085bf9f00390007008fba97004fb1970069
:100df000dfb19700820f5000838f5800050032004a
:100e000020022000608688000084eb008084eb00d4
:100e100005003700d0c2b30080cf560002003a0070
:100e200060041400e0841c000c00e00001003200ab
:100e3000050e78000800be004f0778004f06be0080
:100e40004f05be004f04be00ef00b10000000600d9
:100e50006900e100040035006d00e100030034008a
:100e60000002b10001003200000005001000050082
:100e7000800078001104b100030035009101b10039
:100e800001003c000050a0000000060070868000b9
:100e90000000e0000100320000000100c00c210051
:100ea0000000060003003700b0cf1000050032003c
:100eb0000201e900800178000200e000faff3a0038
:100ec0000000050003007800000006006022b80062
:100ed000060220000000d0008180d2000482d200ef
:100ee0008582d2000000a0000202520083825a00d4
:100ef000030031000202420083824a000000a10088
:100f00000603e900f3ff3a0000000600020ab900f8
:100f1000001bb9000200b8008100420081004300bc
:040f200000000600c7
:020000040000fa
:100f24000200fa00000f78001e007800e10f500064
:100f340009003200e10f500005003900e20f5000b3
:100f440007003200e30f50000700320008003700aa
:100f540001eba8000600370011eba80004003700dd
:100f640021eba8000200370031eba80000000000cc
:100f74000080fa00000006000400fa00000f780068
:100f8400110798001e007800e10f50000b0032009a
:100f9400e10f500005003900e20f50000b00320051
:100fa400e30f50000d003200100037009e00900047
:100fb40021588800062bef000c0037009e0090009b
:100fc400a1588800162bef00080037009e009000ff
:100fd40021598800262bef00040037009e00900062
:100fe400a1598800362bef00000000000080fa00b1
:100ff400000006000400fa00000f780011079800b2
:101004001e007800e10f50000a003200e10f50008a
:1010140005003900e20f500009003200e30f5000d0
:101024000a0032000c0037009e00900061588800ce
:10103400090037009e009000e15888000600370040
:101044009e00900061598800030037009e009000c4
:10105400e1598800000000000080fa00000006004a
:101064000c00fa00004f9800510798000000eb00b4
:10107400100798000000eb00000f78006000b80033
:1010840020079800310798000e4890000080fb006c
:10109400c400dd0000202100008040001000780022
:1010a40061006000100798001e0090000000e0003e
:1010b40018003a000e4890000080fb00c400dd00d8
:1010c400002021000080400090007800c0ff210033
:1010d400008060004200de008000eb005e019000b2
:1010e4000089be005e009000a00090000100a100f5
:1010f400210098000e4890000080fb00c400dd0031
:10110400002021000080400010007800620f600081
:101114006c0037000e4890000080fb00c400dd0026
:101124000020210000804000100078006101b80018
:10113400c0ff2100010020000202780003017800b2
:101144008001780001007800030262000000610061
:101154008000eb00c000dd00000020000001be00a4
:101164006120b8000001710081817100220798009c
:10117400330798002e009000be009000c000dd00f0
:10118400000020005e0190000089be005e00900017
:1011940010027800900290000e4890000080fb003e
:1011a4004400dd008080e800002021000080400031
:1011b400100078006101b800f0ff20000100200059
:1011c40002037800030178008001780001007800b0
:1011d40003036300000061008000eb00c000dd0039
:1011e400000020000001be006130b8000001710061
:1011f400818171004618dd00ca10de008100700094
:101204004610dd0004004000858048005e01900027
:101214000089be005e0090001002780090029000e9
:101224000e4890000080fb004400dd00e400400014
:101234000020210000804000100078004a00de00f9
:101244006101b800f0ff2f000100200002037800c4
:101254000301780080017800010078000303630033
:10126400000061008000eb00c000dd0000002000f1
:101274000001be006130b80000017100818171007d
:1012840004004100858049005e0190000089be0091
:101294005e009000a00090000100a00021009800d2
:1012a4000e4890000080fb004400dd00e400400094
:1012b40000202100008040009000780000202000e1
:1012c400008f60001e0078000000e000050032007e
:1012d4005e009000a00090000110a0002100980082
:1012e4007b0037005e009000a00090000110a10078
:1012f400210098005e009000300090008e4890001d
:101304008180fb00c408dd006681400001202100cb
:101314008100410091007800814078000148780004
:101324005e009000300090000000e8008e489000bd
:101334008180fb00c408dd0066814000012021009b
:101344008100410091007800c808de0081407800e7
:10135400014878005e009000300090000080e800b2
:101364008e4890008180fb00c408dd006881400045
:101374000120210081004100910078008140780023
:10138400014878005e009000300090006300400047
:101394008e4890008180fb00c408dd006881400015
:1013a400012021008100410091007800c808de007e
:1013b40081407800014878005e0090003000900081
:1013c400640040008e4890008180fb00c408dd006a
:1013d4006a814000012021008100410091007800d1
:1013e40081407800014878005e0090003000900051
:1013f400650040008e4890008180fb00c408dd0039
:101404006a814000012021008100410091007800a0
:10141400c808de0081407800014878005e00900032
:1014240030009000660040008e4890008180fb00f0
:10143400c408dd006c8140000120210081004100ce
:101444009100780081407800014878005e009000a7
:1014540030009000670040008e4890008180fb00bf
:10146400c408dd006c81400001202100810041009e
:1014740091007800c808de008140780001487800b7
:101484000e4890000080fb004400dd00e4004000b2
:101494000020210000804000100078000040780007
:1014a4006f4060006f4060006f406000de0090009d
:1014b4000080fb006f0060004200dd00a10190008d
:1014c40032fc2f000281610002007000a00098002d
:1014d4000080fa00000006000400fa00000f780003
:1014e400110798001e009000200090006100600029
:1014f4000000e00015003a001e00900090009000eb
:101504001000780080007800f07f200000806000e8
:10151400c200dd001e007800010878001e80e8008b
:101524008000eb00010878009e0078006480400091
:101534009e009000a1009000c208de00efc0600091
:101544008180fb0001087800250037001e00900010
:1015540090009000100078004008de0080007800c1
:10156400c0ff210000806000800078003100b300db
:101574001e007800010878001e81e8001e0090001b
:101584009000900010007800ca09dd004600de00db
:1015940000807100c608de0080007800f0ff2000a3
:1015a40000806000000978009e007800648140009b
:1015b4001e009000200090004200de006f4060009a
:1015c4008081fb001e0090009000900010007800c5
:1015d400000078004a00dd00008041000009780026
:1015e4001e009000300090000000e0003b0032003c
:1015f4009e017800668041009e009000b10090003a
:101604008100e800914078008180fb004809dd00fa
:101614009e009000b1009000914078008180fb0012
:1016240081004100010878009e0078006880400035
:101634009e009000b1009000e3804000914078004b
:101644008180fb004809dd009e009000b1009000fd
:101654008180e800914078008180fb008100410096
:10166400010878009e0178006a8041009e00900085
:10167400b1009000e5804000914078008180fb003b
:101684004809dd009e009000b1009000e480400015
:10169400914078008180fb008100410001087800be
:1016a4009e0078006c8040009e009000b100900085
:1016b400e7804000914078008180fb004809dd000c
:1016c4009e009000b1009000e680400091407800b8
:1016d4008180fb0081004100010878000080fa004d
:1016e400000006000000fa002468a9000c24ef00a2
:1016f40001208000f08f2f000080600000a0a00077
:10170400002088000000000001208000000e20005e
:101714008080600000082000808f5000faff3a00ab
:101724001000200080208800801a2000902088006b
:1017340010002c003020880070002000a0208800b9
:101744000024ef000004a800c1208000c0ff2f0087
:1017540000806000c0208800c120800030ff2f007e
:1017640000806000c0208800c1208000f0fc2f00b1
:1017740000806000c02088008121800000fe2f00ce
:101784000100700080218800a02180007f0060009b
:10179400a0218800c02180007f006000c021880053
:1017a40081218000c0ff2f0000806000802188001c
:1017b400a1218000c0ff2f0000806000a0218800cc
:1017c400c1218000c0ff2f0000806000c02188007c
:1017d4003224ef003624ef003a24ef003064a900ed
:1017e4003464a9003864a900002280007f006000ee
:1017f4000050a00000228800202280007f006000aa
:101804000060a0002022880001228000c0ff2f0079
:10181400008060000022880021228000c0ff2f0089
:10182400008060002022880041228000c0ff2f0039
:1018340000806000402288004224ef004624ef002c
:101844004a24ef004064a9004464a9004864a90044
:1018540000218000f000b3000021880001218000f5
:10186400000f200001007000002188000121800089
:1018740000f0200001007000002188000004a9008d
:1018840030e4a80031e4a90032e4a90033e4a9005b
:1018940034e4a90035e4a90036e4a90037e4a9003a
:1018a40081218000c0ff2f0000806000802188001b
:1018b40081218000f0cf2f0000806000802188000b
:1018c40091218000c0ff2f000080600090218800db
:1018d40091218000f0cf2f000080600090218800cb
:1018e400a1218000c0ff2f0000806000a02188009b
:1018f400a1218000f0cf2f0000806000a02188008b
:10190400b1218000c0ff2f0000806000b02188005a
:10191400b1218000f0cf2f0000806000b02188004a
:101924002024ef002224ef002824ef002a24ef00d3
:101934000a24a90001208000f08f2f00008060009d
:10194400002088000000000001208000000e20001c
:10195400008060000000e000fbff3a0000fc200073
:101964008a01070040fd20009201070080fe20004c
:101974009a010700c0ff2000a1010700e000210038
:10198400a901070020022100b10107002468a80072
:101994000c24a8000ca4a8000c44a8000080fa00a1
:1019a400000006000000fa002044200080007800b7
:1019b4000000eb008ffd070000202100800078006c
:1019c4000000eb006cfd07000000eb0054fd070075
:1019d4000080fa00000006000000fa000044200025
:1019e400800078001000200082fd07000020210004
:1019f40080007800100020005ffd07001000200028
:101a040047fd07000080fa00000006000400fa0009
:101a1400100798000000eb00000f78002100070079
:101a2400e40f5000060032001e009000e10f500049
:101a3400030032001e009000e40f500014003a002e
:101a44001e00900000407800674060000080fb00aa
:101a5400670060004800dd0002208000f18f2f0045
:101a64008100610001007000002088000000000077
:101a7400002080004500de00674060008080fb009d
:101a84001e009000808f5000f9ff3a0002003700da
:101a940010002000000f78001e0078000080fa007b
:101aa400000006000000fa00002080004500de006f
:101ab400674060000080fb000080fa000000060020
:101ac4000c00fa0040079800510798000000eb0052
:101ad400000f780000432000100798000040eb003e
:101ae400604798005e009000200090004200de00f5
:101af4006f4060000080fb00e80f500001003400dc
:101b04001e00a0000000eb0020079800280037000a
:101b14001e0090009040780000c8b30000c0600030
:101b24000004e0001c0032001e0090001040780009
:101b3400684060000004e00017003a000120210022
:101b44002e0090004400dd0000804000de00900084
:101b540061fe07004e00900000407800e340600002
:101b64001e009000e3c0600090417800c2cfb30033
:101b740002c1610081407100014878001e0090009c
:101b8400904078000134a0000148780010c0b300f0
:101b940060479800090037001e0090000000e8002c
:101ba400100798002e0090000000e800200798001d
:101bb4002e0090000000e000d5ff32006e4090003f
:101bc4000004a2000004e000020032009e0078003d
:101bd400638f70001e0078000080fa000000060089
:101be4000a00fa00400798000040eb0020479800e4
:101bf40050208000640060000000e0000800320013
:101c04000a44a900308180000000e0000200320094
:101c140030818000000001002e4090003900370020
:101c24004e009000300090000000e00002003a00f6
:101c34002e409000330037004020800000407800a0
:101c4400f043b2000080fb00300798003e00900093
:101c5400ef0f500005003e0001218000210798008d
:101c6400be009000010f78000400370011218000ad
:101c7400210798003e009000700f50001e0078006d
:101c8400ae0090000008de006100600000407800b3
:101c94000004e0001a0032003e009000004078008a
:101ca400ce009000eefc07003e009000ef0f5000c5
:101cb40009003e001e007800110020000008dd002d
:101cc4000080ea008000780000218000008060002d
:101cd40000218800080037001e0078001100200051
:101ce4000008dd000080ea008000780010218000f8
:101cf400008060001021880010c0b30020479800c5
:101d04002e4090000080fa00000006000000fa0057
:101d1400502080004d00de00614060000080fb0028
:101d240000f0a7000000ea000000ea004f00de0017
:101d3400004078000080fa00000006000000fa006d
:101d4400502080004b00de00614060000080fb00fa
:101d540000f0a7000000ea000000ea004f00de00e7
:101d6400004078000080fa00000006000000fa003d
:101d7400502080004900de00614060000080fb00cc
:101d840000f0a7000000ea000000ea004f00de00b7
:101d9400004078000080fa00000006000200fa000b
:101da4000040eb00004f78000ec4bf000004e000c8
:101db400050032000ec4bf000004e000020035003c
:101dc40010c0b300004f78001e4078000080fa0075
:101dd400000006000000fa00502080004c00de00e5
:101de400614060000080fb0000f0a7000000ea00f2
:101df4000000ea004f00de00004078000080fa0096
:101e0400000006000000fa00502080004a00de00b6
:101e1400614060000080fb0000f0a7000000ea00c1
:101e24000000ea004f00de00004078000080fa0065
:101e3400000006000200fa000040eb00004f7800aa
:101e44000fc4bf000004e000050032000fc4bf004f
:101e54000004e0000200350010c0b300004f780019
:101e64001e4078000080fa00000006000600fa0018
:101e74000000eb00000f780001218000210798008a
:101e84002e0090000000e000110032000000eb0082
:101e9400100798000b0037001e009000ae00900061
:101ea4000008de0061006000004078000004e000eb
:101eb400010032001e0fe8001e0090000000e80040
:101ec400100798001e009000ef0f5000f2ff36003c
:101ed40011218000210798002e0090000000e000ee
:101ee400110032000000eb00100798000b003700cf
:101ef4001e009000ae0090000008de00610060004b
:101f0400004078000004e000010032001e0fe800e9
:101f14001e0090000000e800100798001e009000ca
:101f2400ef0f5000f2ff36001e00780000407800ea
:101f34000080fa00000006000000fa000ac4a900ac
:101f44000cc4a80001208000f08f2f0000806000e6
:101f54000080a00000208800000000000120800014
:101f6400000e20008080600000022000808f50005e
:101f7400faff3a000080fa00000006000000fa00b0
:101f8400500107000080fa00000006000200fa0079
:101f9400000f78001e007800e08088000080fa00be
:101fa400000006000000fa00490107000080fa0062
:101fb400000006000200fa00000f78001e007800fe
:101fc400f08088000080fa00000006000000fa009b
:101fd400420107000080fa00000006000200fa0037
:101fe400000f78001e007800008188000080fa004d
:101ff400000006000000fa000080fa00000006005d
:102004000200fa00000f78001e007800108188009a
:102014000080fa00000006000000fa003201070008
:102024000080fa00000006000200fa00000f7800a9
:102034001e007800208188000080fa00000006005d
:102044000000fa002b0107000080fa0000000600df
:102054000200fa00000f78001e007800308188002a
:102064000080fa00000006001400fa00000f980037
:10207400110f980003000900001feb008e00b1004f
:102084007e0798001e0890009000900010007800d1
:1020940040079800510798001e08900040409000a7
:1020a400614060000080fb0061006000ee00900071
:1020b4000100a10001007000600798001e08900054
:1020c40050409000614060000080fb0061006000af
:1020d40000004000ee0090000110a100010070001b
:1020e400600798001e089000604090006f406000f8
:1020f4000080fb006f0060004200dd006e01900074
:1021040031fc2f008100610001007000600798001d
:102114007e0090009e089000f140900001487800f5
:102124007e0090000000e8009e0890008148900026
:10213400014878007e0090000080e8009e0890002e
:1021440091489000014878007e00900063004000b0
:102154009e089000a1489000014878007e009000fd
:10216400640040009e089000b14890000148780047
:102174007e009000650040009e089000c1489000d9
:10218400014878007e009000660040009e089000a0
:10219400d1489000014878007e009000670040001c
:1021a4009e089000e14890000148780068004700cc
:1021b400800078000e08900041fe070000f0a700a0
:1021c4000000ea000000ea004f00de000040780052
:1021d4000080fa00000006001400fa00100f9800b6
:1021e4000040eb00004f7800e100470007000900c1
:1021f4008058eb000e00e800000f98006a004700ca
:1022040077fe07000004e000430032005e00900007
:10221400ee0090001e0990000089be007e00900030
:1022240061406000804078001e08900041409800a2
:102234007e009000620060000000e00004003200b4
:102244001e08900021c0b3005140980003003700dd
:102254001e08900011c0b300514098000e08900071
:10226400904078001e089000714098000e0890007d
:102274000000e800904078001e0890000148980093
:102284000e0890000080e800904078001e0890003e
:10229400114898000e0890006300400090407800b8
:1022a4001e089000214898000e0890006400400029
:1022b400904078001e089000314898000e08900065
:1022c40065004000904078001e0890004148980046
:1022d4000e08900066004000904078001e089000b0
:1022e400514898000e089000670040009040780024
:1022f4001e089000614898007e0090004200de00b5
:102304006f406000804078001e0890006140980093
:1023140010c0b300004f78001e4078000080fa001f
:10232400000006000000fa00502080004d00de008e
:10233400614060000080fb0000f0a7000000ea009c
:102344000000ea004f00de00004078000080fa0040
:10235400000006000000fa00502080004b00de0060
:10236400614060000080fb0000f0a7000000ea006c
:102374000000ea004f00de00004078000080fa0010
:10238400000006000000fa00502080004c00de002f
:10239400614060000080fb0000f0a7000000ea003c
:1023a4000000ea004f00de00004078000080fa00e0
:1023b400000006000600fa000000eb00000f7800a1
:1023c40001218000210798002e0090000000e00009
:1023d400110032000000eb00100798000b003700da
:1023e4001e009000ae0090000008de006100600056
:1023f400004078000004e000010032001e0fe800f5
:102404001e0090000000e800100798001e009000d5
:10241400ef0f5000f2ff36001121800021079800d1
:102424002e0090000000e000110032000000eb00dc
:10243400100798000b0037001e009000ae009000bb
:102444000008de0061006000004078000004e00045
:10245400010032001e0fe8001e0090000000e8009a
:10246400100798001e009000ef0f5000f2ff360096
:102474001e007800004078000080fa00000006008a
:102484000000fa000ac4a9000cc4a80001208000be
:10249400f08f2f00008060000080a00000208800e2
:1024a4000000000001208000000e200080806000f9
:1024b40000022000808f5000faff3a000080fa00ea
:1024c400000006000000fa000080fa000000060088
:1024d4000000fa000080fa00000006000000fa0084
:1024e4000080fa00000006000000fa000080fa00f4
:1024f400000006000000fa000080fa000000060058
:102504000000fa002188a9002168a90080002000a9
:10251400001188002222ef0060052000401188008d
:10252400a00b210030808800a00b210020808800af
:10253400300c210010808800300c210000808800bd
:102544000870ef00a02c210005000700802e210058
:10255400120007002168a8000080fa0000000600ad
:102564000200fa00000f78001e0078000000e0006e
:1025740003003a00a02c210050808800020037009c
:102584009e007800518088000080fa000000060058
:102594000000fa000080fa00000006000200fa00c1
:1025a400000f78001e0078000000e00003003a00ed
:1025b400802e210060808800020037009e00780091
:1025c400618088000080fa00000006000000fa0024
:1025d4000080fa00000006000200fa000040eb0050
:1025e400004f78000000000011808000008080000f
:1025f400808f5000fcff320010808000104f780064
:10260400108080000000e8001080880011808000a5
:10261400c00c2100808f500002003a00300c2100d1
:10262400108088001e4078000080fa000000060038
:102634000200fa00004f7800000000001c000700b0
:102644000004a2000004e000fcff3a0020808000a7
:102654001e487800208080000000e8002080880068
:1026640021808000300c2100808f500002003a004d
:10267400a00b2100208088002188a8000080fa0097
:10268400000006000000fa00118080000080800035
:102694000080680000f0a7000000ea000000ea00e3
:1026a4004f00de00004078000080fa0000000600c1
:1026b4000400fa0031808000110798002180800016
:1026c4001e009000808f5000060031009e00900094
:1026d40020808000008050000000e900000f780096
:1026e400050037009e00900020808000008050008c
:1026f40068004000000f78001e00780000f0a7007a
:102704000000ea000000ea004f00de00004078000c
:102714000080fa00000006000000fa00218080001a
:1027240030808000808f500009003a001111800031
:10273400001020000080600000f0a7000000ea0004
:102744000000ea004f00de0000407800010037007e
:102754000040eb000080fa00000006000400fa00cc
:102764000180800011079800108080009e00900076
:10277400808f5000060031009e0090001080800081
:102784000080500069004000000f7800040037000a
:102794009e0090001080800000805000000f7800a0
:1027a400f00f20009e007800808f50000200360059
:1027b40000c0eb00020037001e00780000407800e3
:1027c4000080fa00000006000400fa003180800056
:1027d40011079800218080001e009000808f500017
:1027e400060031009e009000208080000080500090
:1027f4000000e900000f7800050037009e009000fb
:10280400208080000080500068004000000f7800a5
:10281400f00f20009e007800808f500002003600e8
:1028240000c0eb00020037001e0078000040780072
:102834000080fa00000006000800fa002007980053
:1028440031079800c5ff07000080fb00000f7800e7
:102854003e0090009e0f500002003100be00900028
:10286400010f78000000eb00100798000900370002
:1028740059ff0700ae009000804878002e009000b9
:102884000000e800200798001e0090000000e80007
:10289400100798001e0090009e0f5000f4ff3900ae
:1028a4001e0078000080fa00000006000800fa000c
:1028b4002007980031079800c3ff07000080fb0041
:1028c400000f78003e0090009e0f5000020031007f
:1028d400be009000010f78000000eb001007980084
:1028e400090037002e00900010407800ae009000e0
:1028f4008100e800210798004dff07001e009000aa
:102904000000e800100798001e0090009e0f500081
:10291400f4ff39001e0078000080fa000000060071
:102924000400fa000000eb00000f78008bff0700a2
:1029340020479800a4ff0700304798002e409000dd
:102944000080fb000000e00003003200e90f5000ab
:1029540003003200040037001e20a00004003700ea
:102964001e00a000020037001e10a000000000009e
:102974003e4090000080fb000000e00003003200b5
:10298400e90f500003003200040037001e30a0009d
:10299400020037001e40a000000000001e00780066
:1029a4000080fa00000006000400fa0010079800f6
:1029b400118080001e009000008f4000020037004c
:1029c4009e007800698f5000c00c21009e007800a2
:1029d400808f5000faff3e001e00780010407800ff
:1029e4000080fa00000006000000fa005bff070008
:1029f4000080fb000000e9004f00de00004078008a
:102a04000080fa00000006000000fa006eff0700d4
:102a14000080fb000000e9004f00de000040780069
:102a24000080fa00000006000000fa001011800087
:102a34000080fa00000006000000fa0062ff0700b0
:102a44000004e0001000320031808000208080000b
:102a5400808f5000060036003080800080007800af
:102a640020808000008050000000e900070037004b
:102a7400308080008000780020808000008050003a
:102a840068004000010037000000eb000080fa00fd
:102a9400000006000000fa0030ff07000004e00018
:102aa400100032001180800000808000808f500070
:102ab40006003600108080008000780000808000ce
:102ac400008050000000e9000700370010808000fb
:102ad4008000780000808000008050006800400082
:102ae400010037000000eb000080fa00000006003f
:102af4000000fa0021e2a8002342a8000080fa00a6
:102b0400000006000000fa0021e2a9002342a90007
:102b14000080fa00000006000000fa001000200007
:102b2400708088000080fa00000006000400fa00ab
:102b3400cefc07000004e00002003a000e30ef0073
:102b44002d00370000012100e10921003100980027
:102b54000001210022fc07000004e00026003200ee
:102b64000001210010017800900190001000200065
:102b740001002000800f5100818f590002003a00ab
:102b84002c0107001c0037000001210030009000d8
:102b940010407800004f78000000eb001007980008
:102ba40000012100300090000000e800104078008f
:102bb4000080fb004800dd009e0090000080400083
:102bc4001007980000012100300090000080e80008
:102bd400104078000080fb009e00900000804000c0
:102be400100798001e4078001f0107001e00900087
:102bf400cf80de00f90007000080fa000000060024
:102c04001600fa0020579800210f9800ae5090004b
:102c1400c0c4b30080cf500005003a0020c4b30004
:102c2400004f780060c4b300104798000d003700cf
:102c3400ae50900020c5b30080cf500005003a008c
:102c440060c4b300004f780020c4b300104798005c
:102c540004003700ae509000014f7800ae50900051
:102c6400114798002e0890004880de00004078004c
:102c7400304f9800ae089000f00f200000806000f4
:102c8400200f98002e08900000407800404f9800d4
:102c94001e407800204f98002000200001002000f2
:102ca40010079800210798003e0090000000a10042
:102cb400300798003e0090000010a10030079800f3
:102cc400be00900030fc2f00008060000050a00087
:102cd400300798006a004700400798000e80e8001b
:102ce400800078000000eb0075fb07000000000086
:102cf40050208000610060000000e000fcff320012
:102d04000a04a9001e409000204f980030002000c3
:102d14000100200010079800210798003e00900051
:102d24000000a100300798003e0090000010a100b0
:102d340030079800be00900030fc2f000080600037
:102d44000050a000300798006a0047004007980030
:102d54000e80e800800078000000eb0058fb0700bc
:102d64000000000050208000610060000000e000ce
:102d7400fcff32000a04a9000080fa0000000600eb
:102d84000400fa00881f7800c880800012fe070043
:102d940080407800600a2100080040000148780063
:102da400c0808000610a21000080400090407800cb
:102db40040c2b30080cf500003003a00100020004e
:102dc400d080880013003700c0808000610a210091
:102dd4000080400090407800a0c2b30080cf500033
:102de4000c003a00700a2100104f7800a200200065
:102df4008000eb00800a210078f707001007980094
:102e04009e0090001e4078007dff07001a30ef00fe
:102e14001830ef00c0808000f20f50000200340030
:102e24001a30ef001830ef00d08080000000e0007e
:102e340003003200c08080000000e800c0808800e9
:102e44004f0478000080fa00000006000000fa0039
:102e540005e1a9000421a90004c1a90021088000fa
:102e64000003200001007000200888000021ef000a
:102e7400e04720001008880001428000f0ff28008d
:102e84000080600000c0a000004288000068a90023
:102e940015cea800154ea800156ea90015aea80001
:102ea40015eea8000080fa00000006000000fa00f9
:102eb400808180000000e0000c00320011088000d6
:102ec400d0472000808f500004003e00100880008e
:102ed4006a0040001008880038003700e0472000ee
:102ee400100888003030ef00340037006081800023
:102ef4000000e0000c00320011088000d0472000e0
:102f0400808f500004003e00100880006a004000da
:102f1400100888002900370046000700e047200019
:102f2400100888002500370040818000518180000e
:102f3400e00f5000e08f580005003a003d00070004
:102f4400e0472000100888002c30ef001b003700f9
:102f540010088000e147200080805000d0cc2c0075
:102f64000008b8004308de006101b8004081800019
:102f740051818000800f5100818f59000800390071
:102f840011088000d0472000808f500004003e00cc
:102f9400100880006a00400010088800070037000d
:102fa4001108800060092000808f50000300360063
:102fb400100880006a0050001008880040818000da
:102fc4005181800061005000e080580040818800f9
:102fd400518188000080fa00000006000400fa0015
:102fe400008fbe0040818000518180003e0140007e
:102ff400ae8148000200be004081880051818800f3
:103004002108800000002800008060000000e0002b
:1030140001003a00020007000080fa0000000600e8
:103024000000fa002068a80005e1a8000080fa006a
:10303400000006000000fa002068a90005e1a900cc
:103044002c30ef000080fa00000006000000fa00b7
:1030540010002000608188002830ef002a30ef0043
:103064000080fa00000006000200fa00004f780019
:1030740060c4b3009e40780080cf500008003a003e
:103084009170800000002200008060000000e000d9
:1030940014003a00100020008081880011003700dd
:1030a40020c4b3009e40780080cf500008003a004e
:1030b4009170800000002200008060000000e000a9
:1030c40008003200100020008081880005003700cd
:1030d40030c5b3009e40780080cf500001003a0014
:1030e400daff07000080fa00000006000000fa0082
:1030f400003a80000080fa00000006000200fa0096
:10310400faff0700000f78001e0078002400070073
:103114000004e000020032000000280071000700f3
:103124001e0078002a0007000004e00002003200bc
:10313400000024006b0007001e0078003200070026
:103144000004e000020032000020200065000700b7
:103154001e0078003a0007000004e000020032007c
:10316400000820005f0007001e00780042000700ee
:103174000004e000020032000004200059000700af
:103184001e0078004a0007000004e000020032003c
:1031940000012000530007000080fa000000060030
:1031a4000400fa00100798000040eb00004f78007c
:1031b4001e0090000000e00002003d0010c0b300bb
:1031c400004f78001e4078000080fa0000000600de
:1031d4000400fa00100798000040eb00004f78004c
:1031e4009e00900000002400008060000000e000c9
:1031f4000200320010c0b300004f78001e40780077
:103204000080fa00000006000400fa00100798008d
:103214000040eb00004f78009e009000002020004a
:10322400008060000000e0000200320010c0b30023
:10323400004f78001e4078000080fa00000006006d
:103244000400fa00100798000040eb00004f7800db
:103254009e00900000082000008060000000e00054
:103264000200320010c0b300004f78001e40780006
:103274000080fa00000006000400fa00100798001d
:103284000040eb00004f78009e00900000042000f6
:10329400008060000000e0000200320010c0b300b3
:1032a400004f78001e4078000080fa0000000600fd
:1032b4000400fa00100798000040eb00004f78006b
:1032c4001e009000700060000000e0000200320068
:1032d40010c0b300004f78001e4078000080fa0050
:1032e400000006000200fa00000f78009e80ea0049
:1032f400003a800000806000003a88000080fa00f4
:10330400000006000000fa004027ef000080fa00e9
:10331400000006000000fa000002220000588800a5
:103324006004200010588800062bef0000002100e4
:10333400205888000a2bef00082bef000c2bef001d
:1033440070002000705888000088a9002088a80018
:103354000002200080588800200220009058880035
:10336400162bef0000002100a05888001a2bef0054
:10337400182bef001c2bef0070002000f058880081
:1033840001c8a90021c8a800202bef00222bef00c0
:10339400262bef0000002100205988002a2bef0083
:1033a400282bef002c2bef002e2bef000308a90095
:1033b400302bef00322bef00362bef000000210002
:1033c400a05988003a2bef00382bef003c2bef007c
:1033d4003e2bef000488a9000080fa0000000600dc
:1033e4000000fa000080fa00000006000000fa0065
:1033f4000080fa00000006000000fa000080fa00d5
:10340400000006000000fa001140800000102000b7
:10341400008060000000e00002003200f6ff0700b8
:103424000308a9000080fa00000006000000fa006a
:103434000080fa00000006000000fa00204080002e
:10344400700060000000e00002003200f7ff070097
:103454000488a9000080fa00000006000000fa00b9
:10346400042eef0080c02400a070880070012000aa
:103474000070880070392000807088000c2eef00e6
:103484001c2eef000a2eef001a2eef00062eef007e
:10349400162eef003001200070708800001020000c
:1034a400f0708800113a8000f00b20000081600069
:1034b40060042000710520002374200080497800f6
:1034c400814978008249780001348000f00f2c0093
:1034d400008060000080a00000348800a1368000d5
:1034e40000f82f008080600040022000010070007e
:1034f400a03688002136800000f82f00808060000c
:103504002002200001007000203688001134800061
:10351400f00f2c008080600000e0200001007000ab
:1035240010348800103a8000000178000260a00086
:103534006004200071052000237420008049780075
:1035440081497800824978000080fa000000060072
:020000040000fa
:103554007e100000200000008000000032100000f7
:103564000200000082000000ffff000000120000c3
:1035740000020000800000001c1000000c0000008d
:1035840080000000ba10000012000000800000005b
:10359400001000000e000000800000009e100000db
:1035a4001c000000800000000e1000000e0000004f
:1035b40080000000281000000a00000080000000c5
:1035c400341000004a000000820000003031320054
:1035d400333435003637380039616200636465007e
:1035e40066676800696a6b006c6d6e006f707100cd
:1035f400727374007576770078797a0000000000a1
:10360400211511000e0d0c000b0b0a000a0909000c
:103614000909090008080800080808000807070045
:103624000707070007070700070707000707000049
:10363400cc10000004000000800000000000000026
:020000040000fa
:103644001400fa0080382100000f780060c4b30031
:10365400204798002e409000404f98001e007800ac
:103664004880de0000407800504f9800f00f2000a2
:103674001e0f60001e00780000407800604f980024
:103684002000200001002000200798003107980046
:103694004e0090000000a100400798004e009000ea
:1036a4000010a10040079800ce00900030fc2f00cd
:1036b400008060000050a000400798006c004700a4
:1036c4005007980064004700800078000000eb0079
:1036d400fbf807000000000050208000610060003b
:1036e4000000e000fcff32000a04a9000080fa0098
:1036f400000006000000fa006300070014cea900d1
:10370400d2fd0700b4f80700e058210046fa07008c
:103714000100370000000000708080000000e0001d
:10372400fcff320001fd0700fbff37000000fa0038
:1037340000102300203a88004827ef004e27ef00ae
:1037440060022000303a88006027ef006227ef0013
:103754006427ef006627ef006c27ef00320020009b
:1037640080072000a10920003374200080497800dc
:10377400814978008249780012002000600420000a
:103784007105200023742000804978008149780065
:103794008249780000000000103a80006100600057
:1037a4000000e000fcff3a0000000000113a800035
:1037b40000022000008060000000e000fbff3200f7
:1037c4000080fa00000006000000fa003142800088
:1037d400f08f2f00008060000080a000304288003d
:1037e4001142800080ff2f00008060000000a000d4
:1037f4001042880081428000f0ff280000806000b1
:1038040000c0a0008042880001438000f0f82f002f
:10381400008060000040a000004388003142800026
:1038240080ff2f00008060000000a000304288006c
:1038340021428000f0ff28000080600000c0a0004a
:10384400204288000080fa00000006000200fa000e
:10385400000f780021028000200f2000008060000b
:103864001e007000200288000080fa00000006009c
:103874000000fa00c3e8a8000000000000000000f7
:103884000080fa00000006000000fa00f3fe0700c2
:10389400a6ff0700ccff070019fb070091f70700fc
:1038a4009cfe0700f2ff070000022000e7ff07006c
:1038b4000080fa00000006000200fa00000f780001
:1038c4009e00780091818800ffff37000000fa0015
:1038d400e0072100800778006009210000018800ca
:0838e4000080fa00000006005c
:020000040000fa
:02000004000af0
:04afe000cdff0000a1
:020000040000fa
:02000004000af0
:04afe400cfff00009b
:020000040000fa
:02000004000af0
:04afe8007fff0000e7
:020000040000fa
:02000004000af0
:04afec0079ff0000e9
:020000040000fa
:02000004000af0
:04aff00078ff0000e6
:020000040000fa
:02000004000af0
:04aff400ffffff005c
:00000001FF
